{
  "contractName": "Email",
  "abi": [
    {
      "constant": true,
      "inputs": [],
      "name": "letterID",
      "outputs": [
        {
          "name": "",
          "type": "uint256"
        }
      ],
      "payable": false,
      "stateMutability": "view",
      "type": "function",
      "signature": "0x7bcbf7c0"
    },
    {
      "constant": true,
      "inputs": [
        {
          "name": "",
          "type": "uint256"
        }
      ],
      "name": "letters",
      "outputs": [
        {
          "name": "id",
          "type": "uint256"
        },
        {
          "name": "from",
          "type": "address"
        },
        {
          "name": "to",
          "type": "address"
        },
        {
          "name": "theme",
          "type": "string"
        },
        {
          "name": "text",
          "type": "string"
        },
        {
          "name": "fileHash",
          "type": "string"
        }
      ],
      "payable": false,
      "stateMutability": "view",
      "type": "function",
      "signature": "0xa2a0e4c3"
    },
    {
      "constant": false,
      "inputs": [
        {
          "name": "_to",
          "type": "address"
        },
        {
          "name": "_theme",
          "type": "string"
        },
        {
          "name": "_text",
          "type": "string"
        },
        {
          "name": "_fileHash",
          "type": "string"
        }
      ],
      "name": "sendMessage",
      "outputs": [],
      "payable": false,
      "stateMutability": "nonpayable",
      "type": "function",
      "signature": "0x01d4a82f"
    },
    {
      "constant": true,
      "inputs": [],
      "name": "getReceivedMessagesCount",
      "outputs": [
        {
          "name": "",
          "type": "uint256"
        }
      ],
      "payable": false,
      "stateMutability": "view",
      "type": "function",
      "signature": "0x434bd63e"
    },
    {
      "constant": true,
      "inputs": [],
      "name": "getSentMessagesCount",
      "outputs": [
        {
          "name": "",
          "type": "uint256"
        }
      ],
      "payable": false,
      "stateMutability": "view",
      "type": "function",
      "signature": "0xf530b9a8"
    },
    {
      "constant": true,
      "inputs": [
        {
          "name": "_from",
          "type": "address"
        }
      ],
      "name": "getReceivedMessagesFromAddressCount",
      "outputs": [
        {
          "name": "",
          "type": "uint256"
        }
      ],
      "payable": false,
      "stateMutability": "view",
      "type": "function",
      "signature": "0x925faf06"
    },
    {
      "constant": true,
      "inputs": [],
      "name": "getReceivedMessages",
      "outputs": [
        {
          "components": [
            {
              "name": "id",
              "type": "uint256"
            },
            {
              "name": "from",
              "type": "address"
            },
            {
              "name": "to",
              "type": "address"
            },
            {
              "name": "theme",
              "type": "string"
            },
            {
              "name": "text",
              "type": "string"
            },
            {
              "name": "fileHash",
              "type": "string"
            }
          ],
          "name": "",
          "type": "tuple[]"
        }
      ],
      "payable": false,
      "stateMutability": "view",
      "type": "function",
      "signature": "0x4e9a5c89"
    },
    {
      "constant": true,
      "inputs": [],
      "name": "getSentMessages",
      "outputs": [
        {
          "components": [
            {
              "name": "id",
              "type": "uint256"
            },
            {
              "name": "from",
              "type": "address"
            },
            {
              "name": "to",
              "type": "address"
            },
            {
              "name": "theme",
              "type": "string"
            },
            {
              "name": "text",
              "type": "string"
            },
            {
              "name": "fileHash",
              "type": "string"
            }
          ],
          "name": "",
          "type": "tuple[]"
        }
      ],
      "payable": false,
      "stateMutability": "view",
      "type": "function",
      "signature": "0xe9f593f4"
    },
    {
      "constant": true,
      "inputs": [
        {
          "name": "_from",
          "type": "address"
        }
      ],
      "name": "getReceivedMessagesFromAddress",
      "outputs": [
        {
          "components": [
            {
              "name": "id",
              "type": "uint256"
            },
            {
              "name": "from",
              "type": "address"
            },
            {
              "name": "to",
              "type": "address"
            },
            {
              "name": "theme",
              "type": "string"
            },
            {
              "name": "text",
              "type": "string"
            },
            {
              "name": "fileHash",
              "type": "string"
            }
          ],
          "name": "",
          "type": "tuple[]"
        }
      ],
      "payable": false,
      "stateMutability": "view",
      "type": "function",
      "signature": "0x7bb546ea"
    }
  ],
  "bytecode": "0x60806040526000805534801561001457600080fd5b50611ac4806100246000396000f3fe608060405260043610610099576000357c0100000000000000000000000000000000000000000000000000000000900463ffffffff16806301d4a82f1461009e578063434bd63e146100c75780634e9a5c89146100f25780637bb546ea1461011d5780637bcbf7c01461015a578063925faf0614610185578063a2a0e4c3146101c2578063e9f593f414610204578063f530b9a81461022f575b600080fd5b3480156100aa57600080fd5b506100c560048036036100c09190810190611676565b61025a565b005b3480156100d357600080fd5b506100dc6103ec565b6040516100e991906118c5565b60405180910390f35b3480156100fe57600080fd5b50610107610498565b60405161011491906118a3565b60405180910390f35b34801561012957600080fd5b50610144600480360361013f919081019061164d565b610871565b60405161015191906118a3565b60405180910390f35b34801561016657600080fd5b5061016f610cc4565b60405161017c91906118c5565b60405180910390f35b34801561019157600080fd5b506101ac60048036036101a7919081019061164d565b610cca565b6040516101b991906118c5565b60405180910390f35b3480156101ce57600080fd5b506101e960048036036101e49190810190611721565b610def565b6040516101fb969594939291906118e0565b60405180910390f35b34801561021057600080fd5b50610219611042565b60405161022691906118a3565b60405180910390f35b34801561023b57600080fd5b5061024461141b565b60405161025191906118c5565b60405180910390f35b600160c06040519081016040528060005481526020013373ffffffffffffffffffffffffffffffffffffffff1681526020018673ffffffffffffffffffffffffffffffffffffffff16815260200185815260200184815260200183815250908060018154018082558091505090600182039060005260206000209060060201600090919290919091506000820151816000015560208201518160010160006101000a81548173ffffffffffffffffffffffffffffffffffffffff021916908373ffffffffffffffffffffffffffffffffffffffff16021790555060408201518160020160006101000a81548173ffffffffffffffffffffffffffffffffffffffff021916908373ffffffffffffffffffffffffffffffffffffffff16021790555060608201518160030190805190602001906103979291906114c7565b5060808201518160040190805190602001906103b49291906114c7565b5060a08201518160050190805190602001906103d19291906114c7565b50505050600080815480929190600101919050555050505050565b6000806000905060008090505b600180549050811015610490573373ffffffffffffffffffffffffffffffffffffffff1660018281548110151561042c57fe5b906000526020600020906006020160020160009054906101000a900473ffffffffffffffffffffffffffffffffffffffff1673ffffffffffffffffffffffffffffffffffffffff1614156104835781806001019250505b80806001019150506103f9565b508091505090565b606060006104a46103ec565b90506060816040519080825280602002602001820160405280156104e257816020015b6104cf611547565b8152602001906001900390816104c75790505b509050600080905060008090505b600180549050811015610867573373ffffffffffffffffffffffffffffffffffffffff1660018281548110151561052357fe5b906000526020600020906006020160020160009054906101000a900473ffffffffffffffffffffffffffffffffffffffff1673ffffffffffffffffffffffffffffffffffffffff16141561085a5760018181548110151561058057fe5b906000526020600020906006020160c06040519081016040529081600082015481526020016001820160009054906101000a900473ffffffffffffffffffffffffffffffffffffffff1673ffffffffffffffffffffffffffffffffffffffff1673ffffffffffffffffffffffffffffffffffffffff1681526020016002820160009054906101000a900473ffffffffffffffffffffffffffffffffffffffff1673ffffffffffffffffffffffffffffffffffffffff1673ffffffffffffffffffffffffffffffffffffffff168152602001600382018054600181600116156101000203166002900480601f0160208091040260200160405190810160405280929190818152602001828054600181600116156101000203166002900480156106e95780601f106106be576101008083540402835291602001916106e9565b820191906000526020600020905b8154815290600101906020018083116106cc57829003601f168201915b50505050508152602001600482018054600181600116156101000203166002900480601f01602080910402602001604051908101604052809291908181526020018280546001816001161561010002031660029004801561078b5780601f106107605761010080835404028352916020019161078b565b820191906000526020600020905b81548152906001019060200180831161076e57829003601f168201915b50505050508152602001600582018054600181600116156101000203166002900480601f01602080910402602001604051908101604052809291908181526020018280546001816001161561010002031660029004801561082d5780601f106108025761010080835404028352916020019161082d565b820191906000526020600020905b81548152906001019060200180831161081057829003601f168201915b505050505081525050838381518110151561084457fe5b9060200190602002018190525081806001019250505b80806001019150506104f0565b5081935050505090565b6060600061087e83610cca565b90506060816040519080825280602002602001820160405280156108bc57816020015b6108a9611547565b8152602001906001900390816108a15790505b509050600080905060008090505b600180549050811015610cb8573373ffffffffffffffffffffffffffffffffffffffff166001828154811015156108fd57fe5b906000526020600020906006020160020160009054906101000a900473ffffffffffffffffffffffffffffffffffffffff1673ffffffffffffffffffffffffffffffffffffffff161480156109bd57508573ffffffffffffffffffffffffffffffffffffffff1660018281548110151561097357fe5b906000526020600020906006020160010160009054906101000a900473ffffffffffffffffffffffffffffffffffffffff1673ffffffffffffffffffffffffffffffffffffffff16145b15610cab576001818154811015156109d157fe5b906000526020600020906006020160c06040519081016040529081600082015481526020016001820160009054906101000a900473ffffffffffffffffffffffffffffffffffffffff1673ffffffffffffffffffffffffffffffffffffffff1673ffffffffffffffffffffffffffffffffffffffff1681526020016002820160009054906101000a900473ffffffffffffffffffffffffffffffffffffffff1673ffffffffffffffffffffffffffffffffffffffff1673ffffffffffffffffffffffffffffffffffffffff168152602001600382018054600181600116156101000203166002900480601f016020809104026020016040519081016040528092919081815260200182805460018160011615610100020316600290048015610b3a5780601f10610b0f57610100808354040283529160200191610b3a565b820191906000526020600020905b815481529060010190602001808311610b1d57829003601f168201915b50505050508152602001600482018054600181600116156101000203166002900480601f016020809104026020016040519081016040528092919081815260200182805460018160011615610100020316600290048015610bdc5780601f10610bb157610100808354040283529160200191610bdc565b820191906000526020600020905b815481529060010190602001808311610bbf57829003601f168201915b50505050508152602001600582018054600181600116156101000203166002900480601f016020809104026020016040519081016040528092919081815260200182805460018160011615610100020316600290048015610c7e5780601f10610c5357610100808354040283529160200191610c7e565b820191906000526020600020905b815481529060010190602001808311610c6157829003601f168201915b5050505050815250508383815181101515610c9557fe5b9060200190602002018190525081806001019250505b80806001019150506108ca565b50819350505050919050565b60005481565b6000806000905060008090505b600180549050811015610de5573373ffffffffffffffffffffffffffffffffffffffff16600182815481101515610d0a57fe5b906000526020600020906006020160020160009054906101000a900473ffffffffffffffffffffffffffffffffffffffff1673ffffffffffffffffffffffffffffffffffffffff16148015610dca57508373ffffffffffffffffffffffffffffffffffffffff16600182815481101515610d8057fe5b906000526020600020906006020160010160009054906101000a900473ffffffffffffffffffffffffffffffffffffffff1673ffffffffffffffffffffffffffffffffffffffff16145b15610dd85781806001019250505b8080600101915050610cd7565b5080915050919050565b600181815481101515610dfe57fe5b90600052602060002090600602016000915090508060000154908060010160009054906101000a900473ffffffffffffffffffffffffffffffffffffffff16908060020160009054906101000a900473ffffffffffffffffffffffffffffffffffffffff1690806003018054600181600116156101000203166002900480601f016020809104026020016040519081016040528092919081815260200182805460018160011615610100020316600290048015610efc5780601f10610ed157610100808354040283529160200191610efc565b820191906000526020600020905b815481529060010190602001808311610edf57829003601f168201915b505050505090806004018054600181600116156101000203166002900480601f016020809104026020016040519081016040528092919081815260200182805460018160011615610100020316600290048015610f9a5780601f10610f6f57610100808354040283529160200191610f9a565b820191906000526020600020905b815481529060010190602001808311610f7d57829003601f168201915b505050505090806005018054600181600116156101000203166002900480601f0160208091040260200160405190810160405280929190818152602001828054600181600116156101000203166002900480156110385780601f1061100d57610100808354040283529160200191611038565b820191906000526020600020905b81548152906001019060200180831161101b57829003601f168201915b5050505050905086565b6060600061104e61141b565b905060608160405190808252806020026020018201604052801561108c57816020015b611079611547565b8152602001906001900390816110715790505b509050600080905060008090505b600180549050811015611411573373ffffffffffffffffffffffffffffffffffffffff166001828154811015156110cd57fe5b906000526020600020906006020160010160009054906101000a900473ffffffffffffffffffffffffffffffffffffffff1673ffffffffffffffffffffffffffffffffffffffff1614156114045760018181548110151561112a57fe5b906000526020600020906006020160c06040519081016040529081600082015481526020016001820160009054906101000a900473ffffffffffffffffffffffffffffffffffffffff1673ffffffffffffffffffffffffffffffffffffffff1673ffffffffffffffffffffffffffffffffffffffff1681526020016002820160009054906101000a900473ffffffffffffffffffffffffffffffffffffffff1673ffffffffffffffffffffffffffffffffffffffff1673ffffffffffffffffffffffffffffffffffffffff168152602001600382018054600181600116156101000203166002900480601f0160208091040260200160405190810160405280929190818152602001828054600181600116156101000203166002900480156112935780601f1061126857610100808354040283529160200191611293565b820191906000526020600020905b81548152906001019060200180831161127657829003601f168201915b50505050508152602001600482018054600181600116156101000203166002900480601f0160208091040260200160405190810160405280929190818152602001828054600181600116156101000203166002900480156113355780601f1061130a57610100808354040283529160200191611335565b820191906000526020600020905b81548152906001019060200180831161131857829003601f168201915b50505050508152602001600582018054600181600116156101000203166002900480601f0160208091040260200160405190810160405280929190818152602001828054600181600116156101000203166002900480156113d75780601f106113ac576101008083540402835291602001916113d7565b820191906000526020600020905b8154815290600101906020018083116113ba57829003601f168201915b50505050508152505083838151811015156113ee57fe5b9060200190602002018190525081806001019250505b808060010191505061109a565b5081935050505090565b6000806000905060008090505b6001805490508110156114bf573373ffffffffffffffffffffffffffffffffffffffff1660018281548110151561145b57fe5b906000526020600020906006020160010160009054906101000a900473ffffffffffffffffffffffffffffffffffffffff1673ffffffffffffffffffffffffffffffffffffffff1614156114b25781806001019250505b8080600101915050611428565b508091505090565b828054600181600116156101000203166002900490600052602060002090601f016020900481019282601f1061150857805160ff1916838001178555611536565b82800160010185558215611536579182015b8281111561153557825182559160200191906001019061151a565b5b50905061154391906115aa565b5090565b60c06040519081016040528060008152602001600073ffffffffffffffffffffffffffffffffffffffff168152602001600073ffffffffffffffffffffffffffffffffffffffff1681526020016060815260200160608152602001606081525090565b6115cc91905b808211156115c85760008160009055506001016115b0565b5090565b90565b60006115db8235611a1b565b905092915050565b600082601f83011215156115f657600080fd5b813561160961160482611983565b611956565b9150808252602083016020830185838301111561162557600080fd5b611630838284611a37565b50505092915050565b60006116458235611a2d565b905092915050565b60006020828403121561165f57600080fd5b600061166d848285016115cf565b91505092915050565b6000806000806080858703121561168c57600080fd5b600061169a878288016115cf565b945050602085013567ffffffffffffffff8111156116b757600080fd5b6116c3878288016115e3565b935050604085013567ffffffffffffffff8111156116e057600080fd5b6116ec878288016115e3565b925050606085013567ffffffffffffffff81111561170957600080fd5b611715878288016115e3565b91505092959194509250565b60006020828403121561173357600080fd5b600061174184828501611639565b91505092915050565b611753816119df565b82525050565b6000611764826119bc565b8084526020840193508360208202850161177d856119af565b60005b848110156117b65783830388526117988383516117fd565b92506117a3826119d2565b9150602088019750600181019050611780565b508196508694505050505092915050565b60006117d2826119c7565b8084526117e6816020860160208601611a46565b6117ef81611a79565b602085010191505092915050565b600060c0830160008301516118156000860182611894565b506020830151611828602086018261174a565b50604083015161183b604086018261174a565b506060830151848203606086015261185382826117c7565b9150506080830151848203608086015261186d82826117c7565b91505060a083015184820360a086015261188782826117c7565b9150508091505092915050565b61189d81611a11565b82525050565b600060208201905081810360008301526118bd8184611759565b905092915050565b60006020820190506118da6000830184611894565b92915050565b600060c0820190506118f56000830189611894565b611902602083018861174a565b61190f604083018761174a565b818103606083015261192181866117c7565b9050818103608083015261193581856117c7565b905081810360a083015261194981846117c7565b9050979650505050505050565b6000604051905081810181811067ffffffffffffffff8211171561197957600080fd5b8060405250919050565b600067ffffffffffffffff82111561199a57600080fd5b601f19601f8301169050602081019050919050565b6000602082019050919050565b600081519050919050565b600081519050919050565b6000602082019050919050565b60006119ea826119f1565b9050919050565b600073ffffffffffffffffffffffffffffffffffffffff82169050919050565b6000819050919050565b6000611a26826119f1565b9050919050565b6000819050919050565b82818337600083830152505050565b60005b83811015611a64578082015181840152602081019050611a49565b83811115611a73576000848401525b50505050565b6000601f19601f830116905091905056fea265627a7a72305820234c7b8e2b58a5ac615693596f41a9053db5bba54c8158333ef46efe57ba04686c6578706572696d656e74616cf50037",
  "source": "// SPDX-License-Identifier: MIT\r\npragma solidity ^0.5.0;\r\npragma experimental ABIEncoderV2;\r\n\r\ncontract Email {\r\n    struct Letter {\r\n        uint id;\r\n        address from;\r\n        address to;\r\n        string theme;\r\n        string text;\r\n        string fileHash;\r\n    }\r\n    uint public letterID = 0;\r\n    Letter[] public letters;\r\n\r\n    function sendMessage(address _to, string memory _theme, string memory _text, string memory _fileHash) public {\r\n        letters.push(Letter(letterID, msg.sender, _to, _theme, _text, _fileHash));\r\n        letterID++;\r\n    }\r\n\r\n    function getReceivedMessagesCount() public view returns(uint) {\r\n        uint result = 0;\r\n        for (uint i = 0; i < letters.length; i++) {\r\n            if (letters[i].to == msg.sender) {\r\n                result++;\r\n            }\r\n        }\r\n        return result;\r\n    }\r\n\r\n    function getSentMessagesCount() public view returns(uint) {\r\n        uint result = 0;\r\n        for (uint i = 0; i < letters.length; i++) {\r\n            if (letters[i].from == msg.sender) {\r\n                result++;\r\n            }\r\n        }\r\n        return result;\r\n    }\r\n\r\n    function getReceivedMessagesFromAddressCount(address _from) public view returns(uint) {\r\n        uint result = 0;\r\n        for (uint i = 0; i < letters.length; i++) {\r\n            if (letters[i].to == msg.sender && letters[i].from == _from) {\r\n                result++;\r\n            }\r\n        }\r\n        return result;\r\n    }\r\n\r\n    function getReceivedMessages() public view returns (Letter[] memory) {\r\n        uint256 resultCount = getReceivedMessagesCount();\r\n\r\n        Letter[] memory result = new Letter[](resultCount);\r\n        uint256 j = 0;\r\n        for (uint i = 0; i < letters.length; i++) {\r\n            if (letters[i].to == msg.sender) {\r\n                result[j] = letters[i];\r\n                j++;\r\n            }\r\n        }\r\n\r\n        return result;\r\n    }\r\n\r\n    function getSentMessages() public view returns (Letter[] memory) {\r\n        uint256 resultCount = getSentMessagesCount();\r\n        \r\n        Letter[] memory result = new Letter[](resultCount);\r\n        uint256 j = 0;\r\n        for (uint i = 0; i < letters.length; i++) {\r\n            if (letters[i].from == msg.sender) {\r\n                result[j] = letters[i];\r\n                j++;\r\n            }\r\n        }\r\n        return result;\r\n    }\r\n\r\n    function getReceivedMessagesFromAddress(address _from) public view returns (Letter[] memory) {\r\n        uint256 resultCount = getReceivedMessagesFromAddressCount(_from);\r\n\r\n        Letter[] memory result = new Letter[](resultCount);\r\n        uint256 j = 0;\r\n        for (uint i = 0; i < letters.length; i++) {\r\n            if (letters[i].to == msg.sender && letters[i].from == _from) {\r\n                result[j] = letters[i];\r\n                j++;\r\n            }\r\n        }\r\n        return result;\r\n    }\r\n}",
  "sourcePath": "d:/MySummerInternship/MainProject/InterPlanetaryProject/wwwroot/react/contracts/Email.sol",
  "compiler": {
    "name": "solc",
    "version": "0.5.0+commit.1d4f565a.Emscripten.clang"
  },
  "schemaVersion": "3.0.2",
  "updatedAt": "2021-08-09T13:23:04.872Z",
  "devdoc": {
    "methods": {}
  },
  "userdoc": {
    "methods": {}
  }
}