{
  "contractName": "Email",
  "abi": [
    {
      "constant": true,
      "inputs": [],
      "name": "letterID",
      "outputs": [
        {
          "name": "",
          "type": "uint256"
        }
      ],
      "payable": false,
      "stateMutability": "view",
      "type": "function",
      "signature": "0x7bcbf7c0"
    },
    {
      "constant": true,
      "inputs": [
        {
          "name": "",
          "type": "uint256"
        }
      ],
      "name": "letters",
      "outputs": [
        {
          "name": "id",
          "type": "uint256"
        },
        {
          "name": "from",
          "type": "address"
        },
        {
          "name": "to",
          "type": "address"
        },
        {
          "name": "theme",
          "type": "string"
        },
        {
          "name": "text",
          "type": "string"
        },
        {
          "name": "fileHash",
          "type": "string"
        }
      ],
      "payable": false,
      "stateMutability": "view",
      "type": "function",
      "signature": "0xa2a0e4c3"
    },
    {
      "constant": false,
      "inputs": [
        {
          "name": "_to",
          "type": "address"
        },
        {
          "name": "_theme",
          "type": "string"
        },
        {
          "name": "_text",
          "type": "string"
        },
        {
          "name": "_fileHash",
          "type": "string"
        }
      ],
      "name": "sendEmail",
      "outputs": [],
      "payable": false,
      "stateMutability": "nonpayable",
      "type": "function",
      "signature": "0x281d115b"
    },
    {
      "constant": true,
      "inputs": [],
      "name": "lettersToCount",
      "outputs": [
        {
          "name": "",
          "type": "uint256"
        }
      ],
      "payable": false,
      "stateMutability": "view",
      "type": "function",
      "signature": "0xba5d6bcd"
    },
    {
      "constant": true,
      "inputs": [],
      "name": "getEmail",
      "outputs": [
        {
          "components": [
            {
              "name": "id",
              "type": "uint256"
            },
            {
              "name": "from",
              "type": "address"
            },
            {
              "name": "to",
              "type": "address"
            },
            {
              "name": "theme",
              "type": "string"
            },
            {
              "name": "text",
              "type": "string"
            },
            {
              "name": "fileHash",
              "type": "string"
            }
          ],
          "name": "",
          "type": "tuple[]"
        }
      ],
      "payable": false,
      "stateMutability": "view",
      "type": "function",
      "signature": "0x7e79e8ba"
    }
  ],
  "bytecode": "0x60806040526000805534801561001457600080fd5b50610fa2806100246000396000f3fe60806040526004361061006d576000357c0100000000000000000000000000000000000000000000000000000000900463ffffffff168063281d115b146100725780637bcbf7c01461009b5780637e79e8ba146100c6578063a2a0e4c3146100f1578063ba5d6bcd14610133575b600080fd5b34801561007e57600080fd5b5061009960048036036100949190810190610b54565b61015e565b005b3480156100a757600080fd5b506100b06102f0565b6040516100bd9190610da3565b60405180910390f35b3480156100d257600080fd5b506100db6102f6565b6040516100e89190610d81565b60405180910390f35b3480156100fd57600080fd5b5061011860048036036101139190810190610bff565b6106cf565b60405161012a96959493929190610dbe565b60405180910390f35b34801561013f57600080fd5b50610148610922565b6040516101559190610da3565b60405180910390f35b600160c06040519081016040528060005481526020013373ffffffffffffffffffffffffffffffffffffffff1681526020018673ffffffffffffffffffffffffffffffffffffffff16815260200185815260200184815260200183815250908060018154018082558091505090600182039060005260206000209060060201600090919290919091506000820151816000015560208201518160010160006101000a81548173ffffffffffffffffffffffffffffffffffffffff021916908373ffffffffffffffffffffffffffffffffffffffff16021790555060408201518160020160006101000a81548173ffffffffffffffffffffffffffffffffffffffff021916908373ffffffffffffffffffffffffffffffffffffffff160217905550606082015181600301908051906020019061029b9291906109ce565b5060808201518160040190805190602001906102b89291906109ce565b5060a08201518160050190805190602001906102d59291906109ce565b50505050600080815480929190600101919050555050505050565b60005481565b60606000610302610922565b905060608160405190808252806020026020018201604052801561034057816020015b61032d610a4e565b8152602001906001900390816103255790505b509050600080905060008090505b6001805490508110156106c5573373ffffffffffffffffffffffffffffffffffffffff1660018281548110151561038157fe5b906000526020600020906006020160020160009054906101000a900473ffffffffffffffffffffffffffffffffffffffff1673ffffffffffffffffffffffffffffffffffffffff1614156106b8576001818154811015156103de57fe5b906000526020600020906006020160c06040519081016040529081600082015481526020016001820160009054906101000a900473ffffffffffffffffffffffffffffffffffffffff1673ffffffffffffffffffffffffffffffffffffffff1673ffffffffffffffffffffffffffffffffffffffff1681526020016002820160009054906101000a900473ffffffffffffffffffffffffffffffffffffffff1673ffffffffffffffffffffffffffffffffffffffff1673ffffffffffffffffffffffffffffffffffffffff168152602001600382018054600181600116156101000203166002900480601f0160208091040260200160405190810160405280929190818152602001828054600181600116156101000203166002900480156105475780601f1061051c57610100808354040283529160200191610547565b820191906000526020600020905b81548152906001019060200180831161052a57829003601f168201915b50505050508152602001600482018054600181600116156101000203166002900480601f0160208091040260200160405190810160405280929190818152602001828054600181600116156101000203166002900480156105e95780601f106105be576101008083540402835291602001916105e9565b820191906000526020600020905b8154815290600101906020018083116105cc57829003601f168201915b50505050508152602001600582018054600181600116156101000203166002900480601f01602080910402602001604051908101604052809291908181526020018280546001816001161561010002031660029004801561068b5780601f106106605761010080835404028352916020019161068b565b820191906000526020600020905b81548152906001019060200180831161066e57829003601f168201915b50505050508152505083838151811015156106a257fe5b9060200190602002018190525081806001019250505b808060010191505061034e565b5081935050505090565b6001818154811015156106de57fe5b90600052602060002090600602016000915090508060000154908060010160009054906101000a900473ffffffffffffffffffffffffffffffffffffffff16908060020160009054906101000a900473ffffffffffffffffffffffffffffffffffffffff1690806003018054600181600116156101000203166002900480601f0160208091040260200160405190810160405280929190818152602001828054600181600116156101000203166002900480156107dc5780601f106107b1576101008083540402835291602001916107dc565b820191906000526020600020905b8154815290600101906020018083116107bf57829003601f168201915b505050505090806004018054600181600116156101000203166002900480601f01602080910402602001604051908101604052809291908181526020018280546001816001161561010002031660029004801561087a5780601f1061084f5761010080835404028352916020019161087a565b820191906000526020600020905b81548152906001019060200180831161085d57829003601f168201915b505050505090806005018054600181600116156101000203166002900480601f0160208091040260200160405190810160405280929190818152602001828054600181600116156101000203166002900480156109185780601f106108ed57610100808354040283529160200191610918565b820191906000526020600020905b8154815290600101906020018083116108fb57829003601f168201915b5050505050905086565b6000806000905060008090505b6001805490508110156109c6573373ffffffffffffffffffffffffffffffffffffffff1660018281548110151561096257fe5b906000526020600020906006020160020160009054906101000a900473ffffffffffffffffffffffffffffffffffffffff1673ffffffffffffffffffffffffffffffffffffffff1614156109b95781806001019250505b808060010191505061092f565b508091505090565b828054600181600116156101000203166002900490600052602060002090601f016020900481019282601f10610a0f57805160ff1916838001178555610a3d565b82800160010185558215610a3d579182015b82811115610a3c578251825591602001919060010190610a21565b5b509050610a4a9190610ab1565b5090565b60c06040519081016040528060008152602001600073ffffffffffffffffffffffffffffffffffffffff168152602001600073ffffffffffffffffffffffffffffffffffffffff1681526020016060815260200160608152602001606081525090565b610ad391905b80821115610acf576000816000905550600101610ab7565b5090565b90565b6000610ae28235610ef9565b905092915050565b600082601f8301121515610afd57600080fd5b8135610b10610b0b82610e61565b610e34565b91508082526020830160208301858383011115610b2c57600080fd5b610b37838284610f15565b50505092915050565b6000610b4c8235610f0b565b905092915050565b60008060008060808587031215610b6a57600080fd5b6000610b7887828801610ad6565b945050602085013567ffffffffffffffff811115610b9557600080fd5b610ba187828801610aea565b935050604085013567ffffffffffffffff811115610bbe57600080fd5b610bca87828801610aea565b925050606085013567ffffffffffffffff811115610be757600080fd5b610bf387828801610aea565b91505092959194509250565b600060208284031215610c1157600080fd5b6000610c1f84828501610b40565b91505092915050565b610c3181610ebd565b82525050565b6000610c4282610e9a565b80845260208401935083602082028501610c5b85610e8d565b60005b84811015610c94578383038852610c76838351610cdb565b9250610c8182610eb0565b9150602088019750600181019050610c5e565b508196508694505050505092915050565b6000610cb082610ea5565b808452610cc4816020860160208601610f24565b610ccd81610f57565b602085010191505092915050565b600060c083016000830151610cf36000860182610d72565b506020830151610d066020860182610c28565b506040830151610d196040860182610c28565b5060608301518482036060860152610d318282610ca5565b91505060808301518482036080860152610d4b8282610ca5565b91505060a083015184820360a0860152610d658282610ca5565b9150508091505092915050565b610d7b81610eef565b82525050565b60006020820190508181036000830152610d9b8184610c37565b905092915050565b6000602082019050610db86000830184610d72565b92915050565b600060c082019050610dd36000830189610d72565b610de06020830188610c28565b610ded6040830187610c28565b8181036060830152610dff8186610ca5565b90508181036080830152610e138185610ca5565b905081810360a0830152610e278184610ca5565b9050979650505050505050565b6000604051905081810181811067ffffffffffffffff82111715610e5757600080fd5b8060405250919050565b600067ffffffffffffffff821115610e7857600080fd5b601f19601f8301169050602081019050919050565b6000602082019050919050565b600081519050919050565b600081519050919050565b6000602082019050919050565b6000610ec882610ecf565b9050919050565b600073ffffffffffffffffffffffffffffffffffffffff82169050919050565b6000819050919050565b6000610f0482610ecf565b9050919050565b6000819050919050565b82818337600083830152505050565b60005b83811015610f42578082015181840152602081019050610f27565b83811115610f51576000848401525b50505050565b6000601f19601f830116905091905056fea265627a7a72305820faeabb5e6a5ccc1ae87c8446ce4938522459d45ddfb004e682f2a0fdc099281d6c6578706572696d656e74616cf50037",
  "source": "// SPDX-License-Identifier: MIT\r\npragma solidity ^0.5.0;\r\npragma experimental ABIEncoderV2;\r\n\r\ncontract Email {\r\n    struct Letter {\r\n        uint id;\r\n        address from;\r\n        address to;\r\n        string theme;\r\n        string text;\r\n        string fileHash;\r\n    }\r\n    uint public letterID = 0;\r\n    Letter[] public letters;\r\n\r\n    function sendEmail(address _to, string memory _theme, string memory _text, string memory _fileHash) public {\r\n        letters.push(Letter(letterID, msg.sender, _to, _theme, _text, _fileHash));\r\n        letterID++;\r\n    }\r\n\r\n    function lettersToCount() public view returns(uint) {\r\n        uint result = 0;\r\n        for (uint i = 0; i < letters.length; i++) {\r\n            if (letters[i].to == msg.sender) {\r\n                result++;\r\n            }\r\n        }\r\n        return result;\r\n    }\r\n\r\n    function getEmail() public view returns (Letter[] memory) {\r\n        uint256 resultCount = lettersToCount();\r\n\r\n        Letter[] memory result = new Letter[](resultCount);\r\n        uint256 j = 0;\r\n        for (uint i = 0; i < letters.length; i++) {\r\n            if (letters[i].to == msg.sender) {\r\n                result[j] = letters[i];\r\n                j++;\r\n            }\r\n        }\r\n\r\n        return result;\r\n    }\r\n}",
  "sourcePath": "d:/MySummerInternship/MainProject/InterPlanetaryProject/wwwroot/react/contracts/Email.sol",
  "compiler": {
    "name": "solc",
    "version": "0.5.0+commit.1d4f565a.Emscripten.clang"
  },
  "schemaVersion": "3.0.2",
  "updatedAt": "2021-08-09T11:00:20.051Z",
  "devdoc": {
    "methods": {}
  },
  "userdoc": {
    "methods": {}
  }
}