{
  "contractName": "Email",
  "abi": [
    {
      "constant": true,
      "inputs": [
        {
          "name": "",
          "type": "uint256"
        }
      ],
      "name": "letters",
      "outputs": [
        {
          "name": "from",
          "type": "address"
        },
        {
          "name": "to",
          "type": "address"
        },
        {
          "name": "theme",
          "type": "string"
        },
        {
          "name": "text",
          "type": "string"
        },
        {
          "name": "fileHash",
          "type": "string"
        }
      ],
      "payable": false,
      "stateMutability": "view",
      "type": "function",
      "signature": "0xa2a0e4c3"
    },
    {
      "constant": false,
      "inputs": [
        {
          "name": "_to",
          "type": "address"
        },
        {
          "name": "_theme",
          "type": "string"
        },
        {
          "name": "_text",
          "type": "string"
        },
        {
          "name": "_fileHash",
          "type": "string"
        }
      ],
      "name": "sendEmail",
      "outputs": [],
      "payable": false,
      "stateMutability": "nonpayable",
      "type": "function",
      "signature": "0x281d115b"
    },
    {
      "constant": true,
      "inputs": [],
      "name": "getEmail",
      "outputs": [
        {
          "components": [
            {
              "name": "from",
              "type": "address"
            },
            {
              "name": "to",
              "type": "address"
            },
            {
              "name": "theme",
              "type": "string"
            },
            {
              "name": "text",
              "type": "string"
            },
            {
              "name": "fileHash",
              "type": "string"
            }
          ],
          "name": "",
          "type": "tuple[]"
        }
      ],
      "payable": false,
      "stateMutability": "view",
      "type": "function",
      "signature": "0x7e79e8ba"
    }
  ],
  "bytecode": "0x608060405234801561001057600080fd5b50610e7d806100206000396000f3fe608060405260043610610057576000357c0100000000000000000000000000000000000000000000000000000000900463ffffffff168063281d115b1461005c5780637e79e8ba14610085578063a2a0e4c3146100b0575b600080fd5b34801561006857600080fd5b50610083600480360361007e9190810190610a84565b6100f1565b005b34801561009157600080fd5b5061009a610260565b6040516100a79190610cf7565b60405180910390f35b3480156100bc57600080fd5b506100d760048036036100d29190810190610b2f565b6106b8565b6040516100e8959493929190610c8f565b60405180910390f35b600060a0604051908101604052803373ffffffffffffffffffffffffffffffffffffffff1681526020018673ffffffffffffffffffffffffffffffffffffffff168152602001858152602001848152602001838152509080600181540180825580915050906001820390600052602060002090600502016000909192909190915060008201518160000160006101000a81548173ffffffffffffffffffffffffffffffffffffffff021916908373ffffffffffffffffffffffffffffffffffffffff16021790555060208201518160010160006101000a81548173ffffffffffffffffffffffffffffffffffffffff021916908373ffffffffffffffffffffffffffffffffffffffff160217905550604082015181600201908051906020019061021c929190610905565b506060820151816003019080519060200190610239929190610905565b506080820151816004019080519060200190610256929190610905565b5050505050505050565b6060600080805490501115610561576000805480602002602001604051908101604052809291908181526020016000905b82821015610556578382906000526020600020906005020160a060405190810160405290816000820160009054906101000a900473ffffffffffffffffffffffffffffffffffffffff1673ffffffffffffffffffffffffffffffffffffffff1673ffffffffffffffffffffffffffffffffffffffff1681526020016001820160009054906101000a900473ffffffffffffffffffffffffffffffffffffffff1673ffffffffffffffffffffffffffffffffffffffff1673ffffffffffffffffffffffffffffffffffffffff168152602001600282018054600181600116156101000203166002900480601f0160208091040260200160405190810160405280929190818152602001828054600181600116156101000203166002900480156103fa5780601f106103cf576101008083540402835291602001916103fa565b820191906000526020600020905b8154815290600101906020018083116103dd57829003601f168201915b50505050508152602001600382018054600181600116156101000203166002900480601f01602080910402602001604051908101604052809291908181526020018280546001816001161561010002031660029004801561049c5780601f106104715761010080835404028352916020019161049c565b820191906000526020600020905b81548152906001019060200180831161047f57829003601f168201915b50505050508152602001600482018054600181600116156101000203166002900480601f01602080910402602001604051908101604052809291908181526020018280546001816001161561010002031660029004801561053e5780601f106105135761010080835404028352916020019161053e565b820191906000526020600020905b81548152906001019060200180831161052157829003601f168201915b50505050508152505081526020019060010190610291565b5050505090506106b5565b6060600160405190808252806020026020018201604052801561059e57816020015b61058b610985565b8152602001906001900390816105835790505b50905060a0604051908101604052803373ffffffffffffffffffffffffffffffffffffffff1681526020013373ffffffffffffffffffffffffffffffffffffffff1681526020016040805190810160405280600981526020017f466972737454657374000000000000000000000000000000000000000000000081525081526020016040805190810160405280600981526020017f466972737454657374000000000000000000000000000000000000000000000081525081526020016040805190810160405280600881526020017f46696c65486173680000000000000000000000000000000000000000000000008152508152508160008151811015156106a357fe5b90602001906020020181905250809150505b90565b6000818154811015156106c757fe5b90600052602060002090600502016000915090508060000160009054906101000a900473ffffffffffffffffffffffffffffffffffffffff16908060010160009054906101000a900473ffffffffffffffffffffffffffffffffffffffff1690806002018054600181600116156101000203166002900480601f0160208091040260200160405190810160405280929190818152602001828054600181600116156101000203166002900480156107bf5780601f10610794576101008083540402835291602001916107bf565b820191906000526020600020905b8154815290600101906020018083116107a257829003601f168201915b505050505090806003018054600181600116156101000203166002900480601f01602080910402602001604051908101604052809291908181526020018280546001816001161561010002031660029004801561085d5780601f106108325761010080835404028352916020019161085d565b820191906000526020600020905b81548152906001019060200180831161084057829003601f168201915b505050505090806004018054600181600116156101000203166002900480601f0160208091040260200160405190810160405280929190818152602001828054600181600116156101000203166002900480156108fb5780601f106108d0576101008083540402835291602001916108fb565b820191906000526020600020905b8154815290600101906020018083116108de57829003601f168201915b5050505050905085565b828054600181600116156101000203166002900490600052602060002090601f016020900481019282601f1061094657805160ff1916838001178555610974565b82800160010185558215610974579182015b82811115610973578251825591602001919060010190610958565b5b50905061098191906109e1565b5090565b60a060405190810160405280600073ffffffffffffffffffffffffffffffffffffffff168152602001600073ffffffffffffffffffffffffffffffffffffffff1681526020016060815260200160608152602001606081525090565b610a0391905b808211156109ff5760008160009055506001016109e7565b5090565b90565b6000610a128235610dd4565b905092915050565b600082601f8301121515610a2d57600080fd5b8135610a40610a3b82610d46565b610d19565b91508082526020830160208301858383011115610a5c57600080fd5b610a67838284610df0565b50505092915050565b6000610a7c8235610de6565b905092915050565b60008060008060808587031215610a9a57600080fd5b6000610aa887828801610a06565b945050602085013567ffffffffffffffff811115610ac557600080fd5b610ad187828801610a1a565b935050604085013567ffffffffffffffff811115610aee57600080fd5b610afa87828801610a1a565b925050606085013567ffffffffffffffff811115610b1757600080fd5b610b2387828801610a1a565b91505092959194509250565b600060208284031215610b4157600080fd5b6000610b4f84828501610a70565b91505092915050565b610b6181610da2565b82525050565b6000610b7282610d7f565b80845260208401935083602082028501610b8b85610d72565b60005b84811015610bc4578383038852610ba6838351610c0b565b9250610bb182610d95565b9150602088019750600181019050610b8e565b508196508694505050505092915050565b6000610be082610d8a565b808452610bf4816020860160208601610dff565b610bfd81610e32565b602085010191505092915050565b600060a083016000830151610c236000860182610b58565b506020830151610c366020860182610b58565b5060408301518482036040860152610c4e8282610bd5565b91505060608301518482036060860152610c688282610bd5565b91505060808301518482036080860152610c828282610bd5565b9150508091505092915050565b600060a082019050610ca46000830188610b58565b610cb16020830187610b58565b8181036040830152610cc38186610bd5565b90508181036060830152610cd78185610bd5565b90508181036080830152610ceb8184610bd5565b90509695505050505050565b60006020820190508181036000830152610d118184610b67565b905092915050565b6000604051905081810181811067ffffffffffffffff82111715610d3c57600080fd5b8060405250919050565b600067ffffffffffffffff821115610d5d57600080fd5b601f19601f8301169050602081019050919050565b6000602082019050919050565b600081519050919050565b600081519050919050565b6000602082019050919050565b6000610dad82610db4565b9050919050565b600073ffffffffffffffffffffffffffffffffffffffff82169050919050565b6000610ddf82610db4565b9050919050565b6000819050919050565b82818337600083830152505050565b60005b83811015610e1d578082015181840152602081019050610e02565b83811115610e2c576000848401525b50505050565b6000601f19601f830116905091905056fea265627a7a72305820efeecc6fce7434c711df5c3b4f1e94066c0152ad24f46051844c27d9e290ba3d6c6578706572696d656e74616cf50037",
  "source": "// SPDX-License-Identifier: MIT\r\npragma solidity ^0.5.0;\r\npragma experimental ABIEncoderV2;\r\n\r\ncontract Email {\r\n    struct Letter {\r\n        address from;\r\n        address to;\r\n        string theme;\r\n        string text;\r\n        string fileHash;\r\n    }\r\n\r\n    Letter[] public letters;\r\n\r\n    function sendEmail(address _to, string memory _theme, string memory _text, string memory _fileHash) public {\r\n        letters.push(Letter(msg.sender, _to, _theme, _text, _fileHash));\r\n    }\r\n\r\n    function getEmail() public view returns (Letter[] memory) {\r\n        // Not working\r\n        // for (uint i = 0; i < letters.length; i++) {\r\n        //     if (address(letters[i].from) != msg.sender) { (HOW TO COMPARE 2 ADDRESSES?)\r\n        //         return letters[i]; it's old when I tried to return 1 letter \r\n        //     }\r\n        // }\r\n        if (letters.length > 0) {\r\n            return letters;\r\n        }\r\n        Letter[] memory result = new Letter[](1);\r\n        result[0] = Letter(msg.sender, msg.sender, \"FirstTest\", \"FirstTest\", \"FileHash\");\r\n        return result;\r\n    }\r\n}",
  "sourcePath": "d:/MySummerInternship/MainProject/InterPlanetaryProject/wwwroot/react/contracts/Email.sol",
  "compiler": {
    "name": "solc",
    "version": "0.5.0+commit.1d4f565a.Emscripten.clang"
  },
  "schemaVersion": "3.0.2",
  "updatedAt": "2021-08-08T13:11:16.715Z",
  "devdoc": {
    "methods": {}
  },
  "userdoc": {
    "methods": {}
  }
}