{
  "contractName": "Email",
  "abi": [
    {
      "constant": true,
      "inputs": [],
      "name": "letterID",
      "outputs": [
        {
          "name": "",
          "type": "uint256"
        }
      ],
      "payable": false,
      "stateMutability": "view",
      "type": "function",
      "signature": "0x7bcbf7c0"
    },
    {
      "constant": true,
      "inputs": [
        {
          "name": "",
          "type": "uint256"
        }
      ],
      "name": "letters",
      "outputs": [
        {
          "name": "id",
          "type": "uint256"
        },
        {
          "name": "from",
          "type": "address"
        },
        {
          "name": "to",
          "type": "address"
        },
        {
          "name": "theme",
          "type": "string"
        },
        {
          "name": "text",
          "type": "string"
        }
      ],
      "payable": false,
      "stateMutability": "view",
      "type": "function",
      "signature": "0xa2a0e4c3"
    },
    {
      "constant": false,
      "inputs": [
        {
          "name": "_to",
          "type": "address"
        },
        {
          "name": "_theme",
          "type": "string"
        },
        {
          "name": "_text",
          "type": "string"
        },
        {
          "name": "_fileHashes",
          "type": "string[]"
        }
      ],
      "name": "sendMessage",
      "outputs": [],
      "payable": false,
      "stateMutability": "nonpayable",
      "type": "function",
      "signature": "0x73fabfc5"
    },
    {
      "constant": true,
      "inputs": [],
      "name": "getReceivedMessagesCount",
      "outputs": [
        {
          "name": "",
          "type": "uint256"
        }
      ],
      "payable": false,
      "stateMutability": "view",
      "type": "function",
      "signature": "0x434bd63e"
    },
    {
      "constant": true,
      "inputs": [],
      "name": "getSentMessagesCount",
      "outputs": [
        {
          "name": "",
          "type": "uint256"
        }
      ],
      "payable": false,
      "stateMutability": "view",
      "type": "function",
      "signature": "0xf530b9a8"
    },
    {
      "constant": true,
      "inputs": [
        {
          "name": "_from",
          "type": "address"
        }
      ],
      "name": "getReceivedMessagesFromAddressCount",
      "outputs": [
        {
          "name": "",
          "type": "uint256"
        }
      ],
      "payable": false,
      "stateMutability": "view",
      "type": "function",
      "signature": "0x925faf06"
    },
    {
      "constant": true,
      "inputs": [],
      "name": "getReceivedMessages",
      "outputs": [
        {
          "components": [
            {
              "name": "id",
              "type": "uint256"
            },
            {
              "name": "from",
              "type": "address"
            },
            {
              "name": "to",
              "type": "address"
            },
            {
              "name": "theme",
              "type": "string"
            },
            {
              "name": "text",
              "type": "string"
            },
            {
              "name": "fileHashes",
              "type": "string[]"
            }
          ],
          "name": "",
          "type": "tuple[]"
        }
      ],
      "payable": false,
      "stateMutability": "view",
      "type": "function",
      "signature": "0x4e9a5c89"
    },
    {
      "constant": true,
      "inputs": [],
      "name": "getSentMessages",
      "outputs": [
        {
          "components": [
            {
              "name": "id",
              "type": "uint256"
            },
            {
              "name": "from",
              "type": "address"
            },
            {
              "name": "to",
              "type": "address"
            },
            {
              "name": "theme",
              "type": "string"
            },
            {
              "name": "text",
              "type": "string"
            },
            {
              "name": "fileHashes",
              "type": "string[]"
            }
          ],
          "name": "",
          "type": "tuple[]"
        }
      ],
      "payable": false,
      "stateMutability": "view",
      "type": "function",
      "signature": "0xe9f593f4"
    },
    {
      "constant": true,
      "inputs": [
        {
          "name": "_from",
          "type": "address"
        }
      ],
      "name": "getReceivedMessagesFromAddress",
      "outputs": [
        {
          "components": [
            {
              "name": "id",
              "type": "uint256"
            },
            {
              "name": "from",
              "type": "address"
            },
            {
              "name": "to",
              "type": "address"
            },
            {
              "name": "theme",
              "type": "string"
            },
            {
              "name": "text",
              "type": "string"
            },
            {
              "name": "fileHashes",
              "type": "string[]"
            }
          ],
          "name": "",
          "type": "tuple[]"
        }
      ],
      "payable": false,
      "stateMutability": "view",
      "type": "function",
      "signature": "0x7bb546ea"
    }
  ],
  "bytecode": "0x60806040526000805534801561001457600080fd5b50611d6c806100246000396000f3fe608060405260043610610099576000357c0100000000000000000000000000000000000000000000000000000000900463ffffffff168063434bd63e1461009e5780634e9a5c89146100c957806373fabfc5146100f45780637bb546ea1461011d5780637bcbf7c01461015a578063925faf0614610185578063a2a0e4c3146101c2578063e9f593f414610203578063f530b9a81461022e575b600080fd5b3480156100aa57600080fd5b506100b3610259565b6040516100c09190611b09565b60405180910390f35b3480156100d557600080fd5b506100de610305565b6040516100eb9190611ae7565b60405180910390f35b34801561010057600080fd5b5061011b6004803603610116919081019061184c565b610725565b005b34801561012957600080fd5b50610144600480360361013f9190810190611823565b6108b7565b6040516101519190611ae7565b60405180910390f35b34801561016657600080fd5b5061016f610d51565b60405161017c9190611b09565b60405180910390f35b34801561019157600080fd5b506101ac60048036036101a79190810190611823565b610d57565b6040516101b99190611b09565b60405180910390f35b3480156101ce57600080fd5b506101e960048036036101e491908101906118f7565b610e7c565b6040516101fa959493929190611b24565b60405180910390f35b34801561020f57600080fd5b50610218611031565b6040516102259190611ae7565b60405180910390f35b34801561023a57600080fd5b50610243611451565b6040516102509190611b09565b60405180910390f35b6000806000905060008090505b6001805490508110156102fd573373ffffffffffffffffffffffffffffffffffffffff1660018281548110151561029957fe5b906000526020600020906006020160020160009054906101000a900473ffffffffffffffffffffffffffffffffffffffff1673ffffffffffffffffffffffffffffffffffffffff1614156102f05781806001019250505b8080600101915050610266565b508091505090565b60606000610311610259565b905060608160405190808252806020026020018201604052801561034f57816020015b61033c6114fd565b8152602001906001900390816103345790505b509050600080905060008090505b60018054905081101561071b573373ffffffffffffffffffffffffffffffffffffffff1660018281548110151561039057fe5b906000526020600020906006020160020160009054906101000a900473ffffffffffffffffffffffffffffffffffffffff1673ffffffffffffffffffffffffffffffffffffffff16141561070e576001818154811015156103ed57fe5b906000526020600020906006020160c06040519081016040529081600082015481526020016001820160009054906101000a900473ffffffffffffffffffffffffffffffffffffffff1673ffffffffffffffffffffffffffffffffffffffff1673ffffffffffffffffffffffffffffffffffffffff1681526020016002820160009054906101000a900473ffffffffffffffffffffffffffffffffffffffff1673ffffffffffffffffffffffffffffffffffffffff1673ffffffffffffffffffffffffffffffffffffffff168152602001600382018054600181600116156101000203166002900480601f0160208091040260200160405190810160405280929190818152602001828054600181600116156101000203166002900480156105565780601f1061052b57610100808354040283529160200191610556565b820191906000526020600020905b81548152906001019060200180831161053957829003601f168201915b50505050508152602001600482018054600181600116156101000203166002900480601f0160208091040260200160405190810160405280929190818152602001828054600181600116156101000203166002900480156105f85780601f106105cd576101008083540402835291602001916105f8565b820191906000526020600020905b8154815290600101906020018083116105db57829003601f168201915b5050505050815260200160058201805480602002602001604051908101604052809291908181526020016000905b828210156106e2578382906000526020600020018054600181600116156101000203166002900480601f0160208091040260200160405190810160405280929190818152602001828054600181600116156101000203166002900480156106ce5780601f106106a3576101008083540402835291602001916106ce565b820191906000526020600020905b8154815290600101906020018083116106b157829003601f168201915b505050505081526020019060010190610626565b505050508152505083838151811015156106f857fe5b9060200190602002018190525081806001019250505b808060010191505061035d565b5081935050505090565b600160c06040519081016040528060005481526020013373ffffffffffffffffffffffffffffffffffffffff1681526020018673ffffffffffffffffffffffffffffffffffffffff16815260200185815260200184815260200183815250908060018154018082558091505090600182039060005260206000209060060201600090919290919091506000820151816000015560208201518160010160006101000a81548173ffffffffffffffffffffffffffffffffffffffff021916908373ffffffffffffffffffffffffffffffffffffffff16021790555060408201518160020160006101000a81548173ffffffffffffffffffffffffffffffffffffffff021916908373ffffffffffffffffffffffffffffffffffffffff1602179055506060820151816003019080519060200190610862929190611560565b50608082015181600401908051906020019061087f929190611560565b5060a082015181600501908051906020019061089c9291906115e0565b50505050600080815480929190600101919050555050505050565b606060006108c483610d57565b905060608160405190808252806020026020018201604052801561090257816020015b6108ef6114fd565b8152602001906001900390816108e75790505b509050600080905060008090505b600180549050811015610d45573373ffffffffffffffffffffffffffffffffffffffff1660018281548110151561094357fe5b906000526020600020906006020160020160009054906101000a900473ffffffffffffffffffffffffffffffffffffffff1673ffffffffffffffffffffffffffffffffffffffff16148015610a0357508573ffffffffffffffffffffffffffffffffffffffff166001828154811015156109b957fe5b906000526020600020906006020160010160009054906101000a900473ffffffffffffffffffffffffffffffffffffffff1673ffffffffffffffffffffffffffffffffffffffff16145b15610d3857600181815481101515610a1757fe5b906000526020600020906006020160c06040519081016040529081600082015481526020016001820160009054906101000a900473ffffffffffffffffffffffffffffffffffffffff1673ffffffffffffffffffffffffffffffffffffffff1673ffffffffffffffffffffffffffffffffffffffff1681526020016002820160009054906101000a900473ffffffffffffffffffffffffffffffffffffffff1673ffffffffffffffffffffffffffffffffffffffff1673ffffffffffffffffffffffffffffffffffffffff168152602001600382018054600181600116156101000203166002900480601f016020809104026020016040519081016040528092919081815260200182805460018160011615610100020316600290048015610b805780601f10610b5557610100808354040283529160200191610b80565b820191906000526020600020905b815481529060010190602001808311610b6357829003601f168201915b50505050508152602001600482018054600181600116156101000203166002900480601f016020809104026020016040519081016040528092919081815260200182805460018160011615610100020316600290048015610c225780601f10610bf757610100808354040283529160200191610c22565b820191906000526020600020905b815481529060010190602001808311610c0557829003601f168201915b5050505050815260200160058201805480602002602001604051908101604052809291908181526020016000905b82821015610d0c578382906000526020600020018054600181600116156101000203166002900480601f016020809104026020016040519081016040528092919081815260200182805460018160011615610100020316600290048015610cf85780601f10610ccd57610100808354040283529160200191610cf8565b820191906000526020600020905b815481529060010190602001808311610cdb57829003601f168201915b505050505081526020019060010190610c50565b50505050815250508383815181101515610d2257fe5b9060200190602002018190525081806001019250505b8080600101915050610910565b50819350505050919050565b60005481565b6000806000905060008090505b600180549050811015610e72573373ffffffffffffffffffffffffffffffffffffffff16600182815481101515610d9757fe5b906000526020600020906006020160020160009054906101000a900473ffffffffffffffffffffffffffffffffffffffff1673ffffffffffffffffffffffffffffffffffffffff16148015610e5757508373ffffffffffffffffffffffffffffffffffffffff16600182815481101515610e0d57fe5b906000526020600020906006020160010160009054906101000a900473ffffffffffffffffffffffffffffffffffffffff1673ffffffffffffffffffffffffffffffffffffffff16145b15610e655781806001019250505b8080600101915050610d64565b5080915050919050565b600181815481101515610e8b57fe5b90600052602060002090600602016000915090508060000154908060010160009054906101000a900473ffffffffffffffffffffffffffffffffffffffff16908060020160009054906101000a900473ffffffffffffffffffffffffffffffffffffffff1690806003018054600181600116156101000203166002900480601f016020809104026020016040519081016040528092919081815260200182805460018160011615610100020316600290048015610f895780601f10610f5e57610100808354040283529160200191610f89565b820191906000526020600020905b815481529060010190602001808311610f6c57829003601f168201915b505050505090806004018054600181600116156101000203166002900480601f0160208091040260200160405190810160405280929190818152602001828054600181600116156101000203166002900480156110275780601f10610ffc57610100808354040283529160200191611027565b820191906000526020600020905b81548152906001019060200180831161100a57829003601f168201915b5050505050905085565b6060600061103d611451565b905060608160405190808252806020026020018201604052801561107b57816020015b6110686114fd565b8152602001906001900390816110605790505b509050600080905060008090505b600180549050811015611447573373ffffffffffffffffffffffffffffffffffffffff166001828154811015156110bc57fe5b906000526020600020906006020160010160009054906101000a900473ffffffffffffffffffffffffffffffffffffffff1673ffffffffffffffffffffffffffffffffffffffff16141561143a5760018181548110151561111957fe5b906000526020600020906006020160c06040519081016040529081600082015481526020016001820160009054906101000a900473ffffffffffffffffffffffffffffffffffffffff1673ffffffffffffffffffffffffffffffffffffffff1673ffffffffffffffffffffffffffffffffffffffff1681526020016002820160009054906101000a900473ffffffffffffffffffffffffffffffffffffffff1673ffffffffffffffffffffffffffffffffffffffff1673ffffffffffffffffffffffffffffffffffffffff168152602001600382018054600181600116156101000203166002900480601f0160208091040260200160405190810160405280929190818152602001828054600181600116156101000203166002900480156112825780601f1061125757610100808354040283529160200191611282565b820191906000526020600020905b81548152906001019060200180831161126557829003601f168201915b50505050508152602001600482018054600181600116156101000203166002900480601f0160208091040260200160405190810160405280929190818152602001828054600181600116156101000203166002900480156113245780601f106112f957610100808354040283529160200191611324565b820191906000526020600020905b81548152906001019060200180831161130757829003601f168201915b5050505050815260200160058201805480602002602001604051908101604052809291908181526020016000905b8282101561140e578382906000526020600020018054600181600116156101000203166002900480601f0160208091040260200160405190810160405280929190818152602001828054600181600116156101000203166002900480156113fa5780601f106113cf576101008083540402835291602001916113fa565b820191906000526020600020905b8154815290600101906020018083116113dd57829003601f168201915b505050505081526020019060010190611352565b5050505081525050838381518110151561142457fe5b9060200190602002018190525081806001019250505b8080600101915050611089565b5081935050505090565b6000806000905060008090505b6001805490508110156114f5573373ffffffffffffffffffffffffffffffffffffffff1660018281548110151561149157fe5b906000526020600020906006020160010160009054906101000a900473ffffffffffffffffffffffffffffffffffffffff1673ffffffffffffffffffffffffffffffffffffffff1614156114e85781806001019250505b808060010191505061145e565b508091505090565b60c06040519081016040528060008152602001600073ffffffffffffffffffffffffffffffffffffffff168152602001600073ffffffffffffffffffffffffffffffffffffffff1681526020016060815260200160608152602001606081525090565b828054600181600116156101000203166002900490600052602060002090601f016020900481019282601f106115a157805160ff19168380011785556115cf565b828001600101855582156115cf579182015b828111156115ce5782518255916020019190600101906115b3565b5b5090506115dc9190611640565b5090565b82805482825590600052602060002090810192821561162f579160200282015b8281111561162e57825182908051906020019061161e929190611560565b5091602001919060010190611600565b5b50905061163c9190611665565b5090565b61166291905b8082111561165e576000816000905550600101611646565b5090565b90565b61168e91905b8082111561168a57600081816116819190611691565b5060010161166b565b5090565b90565b50805460018160011615610100020316600290046000825580601f106116b757506116d6565b601f0160209004906000526020600020908101906116d59190611640565b5b50565b60006116e58235611cc3565b905092915050565b600082601f830112151561170057600080fd5b813561171361170e82611bb2565b611b85565b9150818183526020840193506020810190508360005b83811015611759578135860161173f8882611763565b845260208401935060208301925050600181019050611729565b5050505092915050565b600082601f830112151561177657600080fd5b813561178961178482611bda565b611b85565b915080825260208301602083018583830111156117a557600080fd5b6117b0838284611cdf565b50505092915050565b600082601f83011215156117cc57600080fd5b81356117df6117da82611c06565b611b85565b915080825260208301602083018583830111156117fb57600080fd5b611806838284611cdf565b50505092915050565b600061181b8235611cd5565b905092915050565b60006020828403121561183557600080fd5b6000611843848285016116d9565b91505092915050565b6000806000806080858703121561186257600080fd5b6000611870878288016116d9565b945050602085013567ffffffffffffffff81111561188d57600080fd5b611899878288016117b9565b935050604085013567ffffffffffffffff8111156118b657600080fd5b6118c2878288016117b9565b925050606085013567ffffffffffffffff8111156118df57600080fd5b6118eb878288016116ed565b91505092959194509250565b60006020828403121561190957600080fd5b60006119178482850161180f565b91505092915050565b61192981611c87565b82525050565b600061193a82611c4c565b8084526020840193508360208202850161195385611c32565b60005b8481101561198c57838303885261196e838351611a0b565b925061197982611c6d565b9150602088019750600181019050611956565b508196508694505050505092915050565b60006119a882611c57565b808452602084019350836020820285016119c185611c3f565b60005b848110156119fa5783830388526119dc838351611a41565b92506119e782611c7a565b91506020880197506001810190506119c4565b508196508694505050505092915050565b6000611a1682611c62565b808452611a2a816020860160208601611cee565b611a3381611d21565b602085010191505092915050565b600060c083016000830151611a596000860182611ad8565b506020830151611a6c6020860182611920565b506040830151611a7f6040860182611920565b5060608301518482036060860152611a978282611a0b565b91505060808301518482036080860152611ab18282611a0b565b91505060a083015184820360a0860152611acb828261192f565b9150508091505092915050565b611ae181611cb9565b82525050565b60006020820190508181036000830152611b01818461199d565b905092915050565b6000602082019050611b1e6000830184611ad8565b92915050565b600060a082019050611b396000830188611ad8565b611b466020830187611920565b611b536040830186611920565b8181036060830152611b658185611a0b565b90508181036080830152611b798184611a0b565b90509695505050505050565b6000604051905081810181811067ffffffffffffffff82111715611ba857600080fd5b8060405250919050565b600067ffffffffffffffff821115611bc957600080fd5b602082029050602081019050919050565b600067ffffffffffffffff821115611bf157600080fd5b601f19601f8301169050602081019050919050565b600067ffffffffffffffff821115611c1d57600080fd5b601f19601f8301169050602081019050919050565b6000602082019050919050565b6000602082019050919050565b600081519050919050565b600081519050919050565b600081519050919050565b6000602082019050919050565b6000602082019050919050565b6000611c9282611c99565b9050919050565b600073ffffffffffffffffffffffffffffffffffffffff82169050919050565b6000819050919050565b6000611cce82611c99565b9050919050565b6000819050919050565b82818337600083830152505050565b60005b83811015611d0c578082015181840152602081019050611cf1565b83811115611d1b576000848401525b50505050565b6000601f19601f830116905091905056fea265627a7a72305820c73325cc37371ac2453e0147aef40f3f9b66660ec5a67c2a88fedf16e2c7c9f66c6578706572696d656e74616cf50037",
  "source": "// SPDX-License-Identifier: MIT\r\npragma solidity ^0.5.0;\r\npragma experimental ABIEncoderV2;\r\n\r\ncontract Email {\r\n    struct Letter {\r\n        uint id;\r\n        address from;\r\n        address to;\r\n        string theme;\r\n        string text;\r\n        string[] fileHashes;\r\n    }\r\n    uint public letterID = 0;\r\n    Letter[] public letters;\r\n\r\n    function sendMessage(address _to, string memory _theme, string memory _text, string[] memory _fileHashes) public {\r\n        letters.push(Letter(letterID, msg.sender, _to, _theme, _text, _fileHashes));\r\n        letterID++;\r\n    }\r\n\r\n    function getReceivedMessagesCount() public view returns(uint) {\r\n        uint result = 0;\r\n        for (uint i = 0; i < letters.length; i++) {\r\n            if (letters[i].to == msg.sender) {\r\n                result++;\r\n            }\r\n        }\r\n        return result;\r\n    }\r\n\r\n    function getSentMessagesCount() public view returns(uint) {\r\n        uint result = 0;\r\n        for (uint i = 0; i < letters.length; i++) {\r\n            if (letters[i].from == msg.sender) {\r\n                result++;\r\n            }\r\n        }\r\n        return result;\r\n    }\r\n\r\n    function getReceivedMessagesFromAddressCount(address _from) public view returns(uint) {\r\n        uint result = 0;\r\n        for (uint i = 0; i < letters.length; i++) {\r\n            if (letters[i].to == msg.sender && letters[i].from == _from) {\r\n                result++;\r\n            }\r\n        }\r\n        return result;\r\n    }\r\n\r\n    function getReceivedMessages() public view returns (Letter[] memory) {\r\n        uint256 resultCount = getReceivedMessagesCount();\r\n\r\n        Letter[] memory result = new Letter[](resultCount);\r\n        uint256 j = 0;\r\n        for (uint i = 0; i < letters.length; i++) {\r\n            if (letters[i].to == msg.sender) {\r\n                result[j] = letters[i];\r\n                j++;\r\n            }\r\n        }\r\n\r\n        return result;\r\n    }\r\n\r\n    function getSentMessages() public view returns (Letter[] memory) {\r\n        uint256 resultCount = getSentMessagesCount();\r\n        \r\n        Letter[] memory result = new Letter[](resultCount);\r\n        uint256 j = 0;\r\n        for (uint i = 0; i < letters.length; i++) {\r\n            if (letters[i].from == msg.sender) {\r\n                result[j] = letters[i];\r\n                j++;\r\n            }\r\n        }\r\n        return result;\r\n    }\r\n\r\n    function getReceivedMessagesFromAddress(address _from) public view returns (Letter[] memory) {\r\n        uint256 resultCount = getReceivedMessagesFromAddressCount(_from);\r\n\r\n        Letter[] memory result = new Letter[](resultCount);\r\n        uint256 j = 0;\r\n        for (uint i = 0; i < letters.length; i++) {\r\n            if (letters[i].to == msg.sender && letters[i].from == _from) {\r\n                result[j] = letters[i];\r\n                j++;\r\n            }\r\n        }\r\n        return result;\r\n    }\r\n}",
  "sourcePath": "d:/MySummerInternship/MainProject/InterPlanetaryProject/wwwroot/react/contracts/Email.sol",
  "compiler": {
    "name": "solc",
    "version": "0.5.0+commit.1d4f565a.Emscripten.clang"
  },
  "schemaVersion": "3.0.2",
  "updatedAt": "2021-08-11T12:48:39.963Z",
  "devdoc": {
    "methods": {}
  },
  "userdoc": {
    "methods": {}
  }
}